{
  "_format": "hh-sol-artifact-1",
  "contractName": "LiquidityMiningCampaign",
  "sourceName": "contracts/LiquidityMiningCampaign.sol",
  "abi": [
    {
      "inputs": [
        {
          "internalType": "contract IERC20",
          "name": "_stakingToken",
          "type": "address"
        },
        {
          "internalType": "address[]",
          "name": "_rewardsTokens",
          "type": "address[]"
        },
        {
          "internalType": "uint256",
          "name": "_stakeLimit",
          "type": "uint256"
        },
        {
          "internalType": "uint256",
          "name": "_contractStakeLimit",
          "type": "uint256"
        },
        {
          "internalType": "string",
          "name": "_name",
          "type": "string"
        },
        {
          "internalType": "address",
          "name": "_wrappedNativeToken",
          "type": "address"
        }
      ],
      "stateMutability": "nonpayable",
      "type": "constructor"
    },
    {
      "anonymous": false,
      "inputs": [
        {
          "indexed": true,
          "internalType": "address",
          "name": "user",
          "type": "address"
        },
        {
          "indexed": false,
          "internalType": "uint256",
          "name": "amount",
          "type": "uint256"
        },
        {
          "indexed": false,
          "internalType": "address",
          "name": "token",
          "type": "address"
        }
      ],
      "name": "Claimed",
      "type": "event"
    },
    {
      "anonymous": false,
      "inputs": [
        {
          "indexed": true,
          "internalType": "address",
          "name": "user",
          "type": "address"
        },
        {
          "indexed": false,
          "internalType": "uint256",
          "name": "amount",
          "type": "uint256"
        }
      ],
      "name": "Exited",
      "type": "event"
    },
    {
      "anonymous": false,
      "inputs": [
        {
          "indexed": false,
          "internalType": "uint256",
          "name": "newStartTimestamp",
          "type": "uint256"
        },
        {
          "indexed": false,
          "internalType": "uint256",
          "name": "newEndTimestamp",
          "type": "uint256"
        },
        {
          "indexed": false,
          "internalType": "uint256[]",
          "name": "newRewardsPerSecond",
          "type": "uint256[]"
        }
      ],
      "name": "Extended",
      "type": "event"
    },
    {
      "anonymous": false,
      "inputs": [
        {
          "indexed": true,
          "internalType": "address",
          "name": "previousOwner",
          "type": "address"
        },
        {
          "indexed": true,
          "internalType": "address",
          "name": "newOwner",
          "type": "address"
        }
      ],
      "name": "OwnershipTransferred",
      "type": "event"
    },
    {
      "anonymous": false,
      "inputs": [
        {
          "indexed": true,
          "internalType": "address",
          "name": "user",
          "type": "address"
        },
        {
          "indexed": false,
          "internalType": "uint256",
          "name": "amount",
          "type": "uint256"
        }
      ],
      "name": "Staked",
      "type": "event"
    },
    {
      "anonymous": false,
      "inputs": [
        {
          "indexed": false,
          "internalType": "uint256",
          "name": "startTimestamp",
          "type": "uint256"
        },
        {
          "indexed": false,
          "internalType": "uint256",
          "name": "endTimestamp",
          "type": "uint256"
        },
        {
          "indexed": false,
          "internalType": "uint256[]",
          "name": "rewardsPerSecond",
          "type": "uint256[]"
        }
      ],
      "name": "Started",
      "type": "event"
    },
    {
      "anonymous": false,
      "inputs": [
        {
          "indexed": true,
          "internalType": "address",
          "name": "user",
          "type": "address"
        },
        {
          "indexed": false,
          "internalType": "uint256",
          "name": "amount",
          "type": "uint256"
        }
      ],
      "name": "Withdrawn",
      "type": "event"
    },
    {
      "inputs": [
        {
          "internalType": "uint256",
          "name": "",
          "type": "uint256"
        }
      ],
      "name": "accumulatedRewardMultiplier",
      "outputs": [
        {
          "internalType": "uint256",
          "name": "",
          "type": "uint256"
        }
      ],
      "stateMutability": "view",
      "type": "function"
    },
    {
      "inputs": [
        {
          "internalType": "address",
          "name": "_userAddress",
          "type": "address"
        }
      ],
      "name": "balanceOf",
      "outputs": [
        {
          "internalType": "uint256",
          "name": "",
          "type": "uint256"
        }
      ],
      "stateMutability": "view",
      "type": "function"
    },
    {
      "inputs": [],
      "name": "cancel",
      "outputs": [],
      "stateMutability": "nonpayable",
      "type": "function"
    },
    {
      "inputs": [],
      "name": "cancelExtension",
      "outputs": [],
      "stateMutability": "nonpayable",
      "type": "function"
    },
    {
      "inputs": [],
      "name": "claim",
      "outputs": [],
      "stateMutability": "nonpayable",
      "type": "function"
    },
    {
      "inputs": [],
      "name": "contractStakeLimit",
      "outputs": [
        {
          "internalType": "uint256",
          "name": "",
          "type": "uint256"
        }
      ],
      "stateMutability": "view",
      "type": "function"
    },
    {
      "inputs": [],
      "name": "endTimestamp",
      "outputs": [
        {
          "internalType": "uint256",
          "name": "",
          "type": "uint256"
        }
      ],
      "stateMutability": "view",
      "type": "function"
    },
    {
      "inputs": [],
      "name": "exit",
      "outputs": [],
      "stateMutability": "nonpayable",
      "type": "function"
    },
    {
      "inputs": [
        {
          "internalType": "address",
          "name": "transferTo",
          "type": "address"
        }
      ],
      "name": "exitAndTransfer",
      "outputs": [],
      "stateMutability": "nonpayable",
      "type": "function"
    },
    {
      "inputs": [
        {
          "internalType": "uint256",
          "name": "_durationTime",
          "type": "uint256"
        },
        {
          "internalType": "uint256[]",
          "name": "_rewardPerSecond",
          "type": "uint256[]"
        }
      ],
      "name": "extend",
      "outputs": [],
      "stateMutability": "nonpayable",
      "type": "function"
    },
    {
      "inputs": [],
      "name": "extensionDuration",
      "outputs": [
        {
          "internalType": "uint256",
          "name": "",
          "type": "uint256"
        }
      ],
      "stateMutability": "view",
      "type": "function"
    },
    {
      "inputs": [
        {
          "internalType": "uint256",
          "name": "",
          "type": "uint256"
        }
      ],
      "name": "extensionRewardPerSecond",
      "outputs": [
        {
          "internalType": "uint256",
          "name": "",
          "type": "uint256"
        }
      ],
      "stateMutability": "view",
      "type": "function"
    },
    {
      "inputs": [
        {
          "internalType": "uint256",
          "name": "_rewardTokenIndex",
          "type": "uint256"
        }
      ],
      "name": "getAvailableBalance",
      "outputs": [
        {
          "internalType": "uint256",
          "name": "",
          "type": "uint256"
        }
      ],
      "stateMutability": "view",
      "type": "function"
    },
    {
      "inputs": [],
      "name": "getPreviousCampaignsCount",
      "outputs": [
        {
          "internalType": "uint256",
          "name": "",
          "type": "uint256"
        }
      ],
      "stateMutability": "view",
      "type": "function"
    },
    {
      "inputs": [],
      "name": "getRewardTokensCount",
      "outputs": [
        {
          "internalType": "uint256",
          "name": "",
          "type": "uint256"
        }
      ],
      "stateMutability": "view",
      "type": "function"
    },
    {
      "inputs": [
        {
          "internalType": "address",
          "name": "_userAddress",
          "type": "address"
        },
        {
          "internalType": "uint256",
          "name": "_tokenIndex",
          "type": "uint256"
        },
        {
          "internalType": "uint256",
          "name": "_time",
          "type": "uint256"
        }
      ],
      "name": "getUserAccumulatedReward",
      "outputs": [
        {
          "internalType": "uint256",
          "name": "",
          "type": "uint256"
        }
      ],
      "stateMutability": "view",
      "type": "function"
    },
    {
      "inputs": [
        {
          "internalType": "address",
          "name": "_userAddress",
          "type": "address"
        },
        {
          "internalType": "uint256",
          "name": "_index",
          "type": "uint256"
        }
      ],
      "name": "getUserOwedTokens",
      "outputs": [
        {
          "internalType": "uint256",
          "name": "",
          "type": "uint256"
        }
      ],
      "stateMutability": "view",
      "type": "function"
    },
    {
      "inputs": [
        {
          "internalType": "address",
          "name": "_userAddress",
          "type": "address"
        },
        {
          "internalType": "uint256",
          "name": "_index",
          "type": "uint256"
        }
      ],
      "name": "getUserRewardDebt",
      "outputs": [
        {
          "internalType": "uint256",
          "name": "",
          "type": "uint256"
        }
      ],
      "stateMutability": "view",
      "type": "function"
    },
    {
      "inputs": [
        {
          "internalType": "address",
          "name": "_userAddress",
          "type": "address"
        }
      ],
      "name": "getUserRewardDebtLength",
      "outputs": [
        {
          "internalType": "uint256",
          "name": "",
          "type": "uint256"
        }
      ],
      "stateMutability": "view",
      "type": "function"
    },
    {
      "inputs": [
        {
          "internalType": "address",
          "name": "_userAddress",
          "type": "address"
        }
      ],
      "name": "getUserTokensOwedLength",
      "outputs": [
        {
          "internalType": "uint256",
          "name": "",
          "type": "uint256"
        }
      ],
      "stateMutability": "view",
      "type": "function"
    },
    {
      "inputs": [],
      "name": "hasStakingStarted",
      "outputs": [
        {
          "internalType": "bool",
          "name": "",
          "type": "bool"
        }
      ],
      "stateMutability": "view",
      "type": "function"
    },
    {
      "inputs": [],
      "name": "name",
      "outputs": [
        {
          "internalType": "string",
          "name": "",
          "type": "string"
        }
      ],
      "stateMutability": "view",
      "type": "function"
    },
    {
      "inputs": [],
      "name": "owner",
      "outputs": [
        {
          "internalType": "address",
          "name": "",
          "type": "address"
        }
      ],
      "stateMutability": "view",
      "type": "function"
    },
    {
      "inputs": [
        {
          "internalType": "uint256",
          "name": "",
          "type": "uint256"
        }
      ],
      "name": "previousCampaigns",
      "outputs": [
        {
          "internalType": "uint256",
          "name": "startTimestamp",
          "type": "uint256"
        },
        {
          "internalType": "uint256",
          "name": "endTimestamp",
          "type": "uint256"
        }
      ],
      "stateMutability": "view",
      "type": "function"
    },
    {
      "inputs": [
        {
          "internalType": "address",
          "name": "",
          "type": "address"
        }
      ],
      "name": "receiversWhitelist",
      "outputs": [
        {
          "internalType": "bool",
          "name": "",
          "type": "bool"
        }
      ],
      "stateMutability": "view",
      "type": "function"
    },
    {
      "inputs": [],
      "name": "renounceOwnership",
      "outputs": [],
      "stateMutability": "nonpayable",
      "type": "function"
    },
    {
      "inputs": [
        {
          "internalType": "uint256",
          "name": "",
          "type": "uint256"
        }
      ],
      "name": "rewardPerSecond",
      "outputs": [
        {
          "internalType": "uint256",
          "name": "",
          "type": "uint256"
        }
      ],
      "stateMutability": "view",
      "type": "function"
    },
    {
      "inputs": [
        {
          "internalType": "uint256",
          "name": "",
          "type": "uint256"
        }
      ],
      "name": "rewardsTokens",
      "outputs": [
        {
          "internalType": "address",
          "name": "",
          "type": "address"
        }
      ],
      "stateMutability": "view",
      "type": "function"
    },
    {
      "inputs": [
        {
          "internalType": "address",
          "name": "_receiver",
          "type": "address"
        },
        {
          "internalType": "bool",
          "name": "_whitelisted",
          "type": "bool"
        }
      ],
      "name": "setReceiverWhitelisted",
      "outputs": [],
      "stateMutability": "nonpayable",
      "type": "function"
    },
    {
      "inputs": [
        {
          "internalType": "uint256",
          "name": "_tokenAmount",
          "type": "uint256"
        }
      ],
      "name": "stake",
      "outputs": [],
      "stateMutability": "nonpayable",
      "type": "function"
    },
    {
      "inputs": [],
      "name": "stakeLimit",
      "outputs": [
        {
          "internalType": "uint256",
          "name": "",
          "type": "uint256"
        }
      ],
      "stateMutability": "view",
      "type": "function"
    },
    {
      "inputs": [],
      "name": "stakingToken",
      "outputs": [
        {
          "internalType": "contract IERC20",
          "name": "",
          "type": "address"
        }
      ],
      "stateMutability": "view",
      "type": "function"
    },
    {
      "inputs": [
        {
          "internalType": "uint256",
          "name": "_startTimestamp",
          "type": "uint256"
        },
        {
          "internalType": "uint256",
          "name": "_endTimestamp",
          "type": "uint256"
        },
        {
          "internalType": "uint256[]",
          "name": "_rewardPerSecond",
          "type": "uint256[]"
        }
      ],
      "name": "start",
      "outputs": [],
      "stateMutability": "nonpayable",
      "type": "function"
    },
    {
      "inputs": [],
      "name": "startTimestamp",
      "outputs": [
        {
          "internalType": "uint256",
          "name": "",
          "type": "uint256"
        }
      ],
      "stateMutability": "view",
      "type": "function"
    },
    {
      "inputs": [],
      "name": "totalStaked",
      "outputs": [
        {
          "internalType": "uint256",
          "name": "",
          "type": "uint256"
        }
      ],
      "stateMutability": "view",
      "type": "function"
    },
    {
      "inputs": [
        {
          "internalType": "address",
          "name": "newOwner",
          "type": "address"
        }
      ],
      "name": "transferOwnership",
      "outputs": [],
      "stateMutability": "nonpayable",
      "type": "function"
    },
    {
      "inputs": [],
      "name": "updateRewardMultipliers",
      "outputs": [],
      "stateMutability": "nonpayable",
      "type": "function"
    },
    {
      "inputs": [
        {
          "internalType": "address",
          "name": "",
          "type": "address"
        }
      ],
      "name": "userInfo",
      "outputs": [
        {
          "internalType": "uint256",
          "name": "firstStakedTimestamp",
          "type": "uint256"
        },
        {
          "internalType": "uint256",
          "name": "amountStaked",
          "type": "uint256"
        }
      ],
      "stateMutability": "view",
      "type": "function"
    },
    {
      "inputs": [
        {
          "internalType": "uint256",
          "name": "_tokenAmount",
          "type": "uint256"
        }
      ],
      "name": "withdraw",
      "outputs": [],
      "stateMutability": "nonpayable",
      "type": "function"
    },
    {
      "inputs": [
        {
          "internalType": "address",
          "name": "_recipient",
          "type": "address"
        }
      ],
      "name": "withdrawExcessRewards",
      "outputs": [],
      "stateMutability": "nonpayable",
      "type": "function"
    },
    {
      "inputs": [
        {
          "internalType": "address",
          "name": "_recipient",
          "type": "address"
        },
        {
          "internalType": "address",
          "name": "_token",
          "type": "address"
        }
      ],
      "name": "withdrawTokens",
      "outputs": [],
      "stateMutability": "nonpayable",
      "type": "function"
    },
    {
      "inputs": [],
      "name": "wrappedNativeToken",
      "outputs": [
        {
          "internalType": "address",
          "name": "",
          "type": "address"
        }
      ],
      "stateMutability": "view",
      "type": "function"
    },
    {
      "stateMutability": "payable",
      "type": "receive"
    }
  ],
  "bytecode": "0x60e06040523480156200001157600080fd5b50604051620038753803806200387583398101604081905262000034916200060f565b85858585858562000045336200037b565b6001600160a01b038616620000b05760405162461bcd60e51b815260206004820152602660248201527f52657761726473506f6f6c426173653a20696e76616c6964207374616b696e67604482015265103a37b5b2b760d11b60648201526084015b60405180910390fd5b8315801590620000bf57508215155b620001195760405162461bcd60e51b8152602060048201526024808201527f52657761726473506f6f6c426173653a20696e76616c6964207374616b65206c6044820152631a5b5a5d60e21b6064820152608401620000a7565b6000855111620001785760405162461bcd60e51b8152602060048201526024808201527f52657761726473506f6f6c426173653a20656d7074792072657761726473546f6044820152636b656e7360e01b6064820152608401620000a7565b60005b8551811015620002795760006200019482600162000747565b90505b86518110156200026357868181518110620001b657620001b662000762565b60200260200101516001600160a01b0316878381518110620001dc57620001dc62000762565b60200260200101516001600160a01b031614156200024e5760405162461bcd60e51b815260206004820152602860248201527f52657761726473506f6f6c426173653a206475706c69636174652072657761726044820152673239903a37b5b2b760c11b6064820152608401620000a7565b806200025a8162000778565b91505062000197565b5080620002708162000778565b9150506200017b565b506001600160a01b03861660805284516200029c906005906020880190620003cb565b5060a084905260c0839052600680546001600160a01b0319166001600160a01b0383161790556005546000906001600160401b03811115620002e257620002e26200051f565b6040519080825280602002602001820160405280156200030c578160200160208202803683370190505b5080519091506200032590600c90602084019062000435565b5080516200033b90600290602084019062000435565b5080516200035190600390602084019062000435565b5082516200036790600d90602086019062000473565b5050505050505050505050505050620007d3565b600080546001600160a01b038381166001600160a01b0319831681178455604051919092169283917f8be0079c531659141344cd1fd0a4f28419497f9722a3daafe3b4186f6b6457e09190a35050565b82805482825590600052602060002090810192821562000423579160200282015b828111156200042357825182546001600160a01b0319166001600160a01b03909116178255602090920191600190910190620003ec565b5062000431929150620004ef565b5090565b82805482825590600052602060002090810192821562000423579160200282015b828111156200042357825182559160200191906001019062000456565b828054620004819062000796565b90600052602060002090601f016020900481019282620004a5576000855562000423565b82601f10620004c057805160ff191683800117855562000423565b828001600101855582156200042357918201828111156200042357825182559160200191906001019062000456565b5b80821115620004315760008155600101620004f0565b6001600160a01b03811681146200051c57600080fd5b50565b634e487b7160e01b600052604160045260246000fd5b604051601f8201601f191681016001600160401b03811182821017156200056057620005606200051f565b604052919050565b8051620005758162000506565b919050565b600082601f8301126200058c57600080fd5b81516001600160401b03811115620005a857620005a86200051f565b6020620005be601f8301601f1916820162000535565b8281528582848701011115620005d357600080fd5b60005b83811015620005f3578581018301518282018401528201620005d6565b83811115620006055760008385840101525b5095945050505050565b60008060008060008060c087890312156200062957600080fd5b8651620006368162000506565b602088810151919750906001600160401b03808211156200065657600080fd5b818a0191508a601f8301126200066b57600080fd5b8151818111156200068057620006806200051f565b8060051b6200069185820162000535565b918252838101850191858101908e841115620006ac57600080fd5b948601945b83861015620006da5785519250620006c98362000506565b8282529486019490860190620006b1565b809b505050505060408a0151965060608a0151955060808a01519250808311156200070457600080fd5b50506200071489828a016200057a565b9250506200072560a0880162000568565b90509295509295509295565b634e487b7160e01b600052601160045260246000fd5b600082198211156200075d576200075d62000731565b500190565b634e487b7160e01b600052603260045260246000fd5b60006000198214156200078f576200078f62000731565b5060010190565b600181811c90821680620007ab57607f821691505b60208210811415620007cd57634e487b7160e01b600052602260045260246000fd5b50919050565b60805160a05160c05161304162000834600039600081816102be0152612551015260008181610477015261251b015260008181610563015281816109e4015281816110d70152818161141601528181611e70015261274f01526130416000f3fe6080604052600436106102545760003560e01c80638285d04511610139578063b6d0dcd8116100b6578063e9fad8ee1161007a578063e9fad8ee14610768578063ea8a1af01461077d578063f27d026414610792578063f2fde38b146107b2578063fb58cad1146107d2578063fd67fd7c146107f257600080fd5b8063b6d0dcd8146106dd578063c97559ce146106fd578063ce4153021461071d578063dd2da2201461073d578063e6fd48bc1461075257600080fd5b8063a522ad25116100fd578063a522ad2514610647578063a694fc3a14610667578063a85adeab14610687578063a861a7a31461069d578063aabef0db146106bd57600080fd5b80638285d0451461059b578063869d8ead146105b05780638da5cb5b146105d05780639d662b99146105ee578063a1292aea1461060e57600080fd5b80632e1a7d4d116101d2578063602e007a11610196578063602e007a146104c35780636c32bf69146104e357806370a0823114610503578063715018a61461053c57806372f702f314610551578063817b1cd21461058557600080fd5b80632e1a7d4d14610405578063363291dc1461042557806345ef79af146104655780634e71d92d1461049957806357b4f01f146104ae57600080fd5b80632037424b116102195780632037424b146103835780632240e63c146103995780632af9b070146103bb5780632c3f455c146103d05780632d9e88e1146103f057600080fd5b806284c9271461026057806303d1dae0146102ac57806306fdde03146102e057806317fcb39b146103025780631959a0021461033a57600080fd5b3661025b57005b600080fd5b34801561026c57600080fd5b5061029961027b366004612b40565b6001600160a01b03166000908152600e602052604090206002015490565b6040519081526020015b60405180910390f35b3480156102b857600080fd5b506102997f000000000000000000000000000000000000000000000000000000000000000081565b3480156102ec57600080fd5b506102f5610812565b6040516102a39190612b87565b34801561030e57600080fd5b50600654610322906001600160a01b031681565b6040516001600160a01b0390911681526020016102a3565b34801561034657600080fd5b5061036e610355366004612b40565b600e602052600090815260409020805460019091015482565b604080519283526020830191909152016102a3565b34801561038f57600080fd5b50610299600a5481565b3480156103a557600080fd5b506103b96103b4366004612b40565b6108a0565b005b3480156103c757600080fd5b506103b9610ac8565b3480156103dc57600080fd5b506103b96103eb366004612b40565b610be9565b3480156103fc57600080fd5b50600554610299565b34801561041157600080fd5b506103b9610420366004612bba565b610c80565b34801561043157600080fd5b50610455610440366004612b40565b60106020526000908152604090205460ff1681565b60405190151581526020016102a3565b34801561047157600080fd5b506102997f000000000000000000000000000000000000000000000000000000000000000081565b3480156104a557600080fd5b506103b9610c8d565b3480156104ba57600080fd5b50610455610c96565b3480156104cf57600080fd5b506102996104de366004612bba565b610cb0565b3480156104ef57600080fd5b506103b96104fe366004612c1f565b610cd1565b34801561050f57600080fd5b5061029961051e366004612b40565b6001600160a01b03166000908152600e602052604090206001015490565b34801561054857600080fd5b506103b9610f41565b34801561055d57600080fd5b506103227f000000000000000000000000000000000000000000000000000000000000000081565b34801561059157600080fd5b5061029960015481565b3480156105a757600080fd5b50600f54610299565b3480156105bc57600080fd5b506103b96105cb366004612c6b565b610f75565b3480156105dc57600080fd5b506000546001600160a01b0316610322565b3480156105fa57600080fd5b5061036e610609366004612bba565b610fb1565b34801561061a57600080fd5b50610299610629366004612b40565b6001600160a01b03166000908152600e602052604090206003015490565b34801561065357600080fd5b506103b9610662366004612cbe565b610fdf565b34801561067357600080fd5b506103b9610682366004612bba565b611233565b34801561069357600080fd5b5061029960085481565b3480156106a957600080fd5b506103b96106b8366004612cff565b61123f565b3480156106c957600080fd5b506102996106d8366004612bba565b611291565b3480156106e957600080fd5b506103226106f8366004612bba565b611467565b34801561070957600080fd5b50610299610718366004612d36565b611491565b34801561072957600080fd5b50610299610738366004612d69565b6115e6565b34801561074957600080fd5b506103b9611628565b34801561075e57600080fd5b5061029960075481565b34801561077457600080fd5b506103b96116c2565b34801561078957600080fd5b506103b96116cb565b34801561079e57600080fd5b506102996107ad366004612d69565b611794565b3480156107be57600080fd5b506103b96107cd366004612b40565b6117c2565b3480156107de57600080fd5b506102996107ed366004612bba565b61185a565b3480156107fe57600080fd5b5061029961080d366004612bba565b61186a565b600d805461081f90612d93565b80601f016020809104026020016040519081016040528092919081815260200182805461084b90612d93565b80156108985780601f1061086d57610100808354040283529160200191610898565b820191906000526020600020905b81548152906001019060200180831161087b57829003601f168201915b505050505081565b6001600160a01b038116600090815260106020526040902054819060ff166109245760405162461bcd60e51b815260206004820152602c60248201527f65786974416e645472616e736665723a3a7265636569766572206973206e6f7460448201526b081dda1a5d195b1a5cdd195960a21b60648201526084015b60405180910390fd5b336000908152600e60205260409020600181015461094157505050565b610949611628565b60018101546109573361187a565b61096033611a2c565b60008260010181905550806001546109789190612de4565b60015560005b6005548110156109bd57600083600201828154811061099f5761099f612dfb565b600091825260209091200155806109b581612e11565b91505061097e565b5060405163095ea7b360e01b81526001600160a01b038581166004830152602482018390527f0000000000000000000000000000000000000000000000000000000000000000169063095ea7b390604401602060405180830381600087803b158015610a2857600080fd5b505af1158015610a3c573d6000803e3d6000fd5b505050506040513d601f19601f82011682018060405250810190610a609190612e2c565b50604051633c323a1b60e01b8152336004820152602481018290526001600160a01b03851690633c323a1b90604401600060405180830381600087803b158015610aa957600080fd5b505af1158015610abd573d6000803e3d6000fd5b5050505050505b5050565b6000546001600160a01b03163314610af25760405162461bcd60e51b815260040161091b90612e49565b6000600a5411610b5d5760405162461bcd60e51b815260206004820152603060248201527f52657761726473506f6f6c426173653a207468657265206973206e6f2065787460448201526f195b9cda5bdb881cd8da19591d5b195960821b606482015260840161091b565b6008544210610bd45760405162461bcd60e51b815260206004820152603d60248201527f52657761726473506f6f6c426173653a2063616e6e6f742063616e63656c206560448201527f7874656e73696f6e206166746572206974206861732073746172746564000000606482015260840161091b565b6000600a819055610be790600b90612a6b565b565b6000546001600160a01b03163314610c135760405162461bcd60e51b815260040161091b90612e49565b60055460005b81811015610c7b576000610c2c82611291565b90508015610c6857610c68848260058581548110610c4c57610c4c612dfb565b6000918252602090912001546001600160a01b03169190611c88565b5080610c7381612e11565b915050610c19565b505050565b610c8a8133611ceb565b50565b610be733611a2c565b600080600754118015610cab57506007544210155b905090565b600b8181548110610cc057600080fd5b600091825260209091200154905081565b6000546001600160a01b03163314610cfb5760405162461bcd60e51b815260040161091b90612e49565b600a5415610d625760405162461bcd60e51b815260206004820152602e60248201527f52657761726473506f6f6c426173653a20746865726520697320616c7265616460448201526d3c9030b71032bc3a32b739b4b7b760911b606482015260840161091b565b60008311610dcb5760405162461bcd60e51b815260206004820152603060248201527f52657761726473506f6f6c426173653a206475726174696f6e206d757374206260448201526f0652067726561746572207468616e20360841b606482015260840161091b565b60055481908114610dee5760405162461bcd60e51b815260040161091b90612e7e565b60085442908111600081610e0457600854610e06565b825b90506000610e148883612ec6565b905060005b85811015610ed0576000610e4684848b8b86818110610e3a57610e3a612dfb565b90506020020135611e97565b90506000610e5383611291565b905081811015610ebb5760405162461bcd60e51b815260206004820152602d60248201527f52657761726473506f6f6c426173653a206e6f7420656e6f756768207265776160448201526c1c991cc81d1bc8195e1d195b99609a1b606482015260840161091b565b50508080610ec890612e11565b915050610e19565b508215610f2557610ee2600854611eb0565b610f208282898980806020026020016040519081016040528093929190818152602001838360200280828437600092019190915250611fc392505050565b610abd565b600a889055610f36600b8888612a89565b505050505050505050565b6000546001600160a01b03163314610f6b5760405162461bcd60e51b815260040161091b90612e49565b610be7600061217b565b6000546001600160a01b03163314610f9f5760405162461bcd60e51b815260040161091b90612e49565b610fab848484846121cb565b50505050565b600f8181548110610fc157600080fd5b60009182526020909120600390910201805460019091015490915082565b6000546001600160a01b031633146110095760405162461bcd60e51b815260040161091b90612e49565b6040516370a0823160e01b81523060048201526000906001600160a01b038316906370a082319060240160206040518083038186803b15801561104b57600080fd5b505afa15801561105f573d6000803e3d6000fd5b505050506040513d601f19601f820116820180604052508101906110839190612ede565b9050600081116110d55760405162461bcd60e51b815260206004820152601b60248201527f52657761726473506f6f6c426173653a206e6f20726577617264730000000000604482015260640161091b565b7f00000000000000000000000000000000000000000000000000000000000000006001600160a01b0316826001600160a01b0316141561116e5760405162461bcd60e51b815260206004820152602e60248201527f52657761726473506f6f6c426173653a2063616e6e6f7420776974686472617760448201526d1039ba30b5b4b733903a37b5b2b760911b606482015260840161091b565b60055460005b8181101561121e576005818154811061118f5761118f612dfb565b6000918252602090912001546001600160a01b038581169116141561120c5760405162461bcd60e51b815260206004820152602d60248201527f52657761726473506f6f6c426173653a2063616e6e6f7420776974686472617760448201526c103932bbb0b932103a37b5b2b760991b606482015260840161091b565b8061121681612e11565b915050611174565b50610fab6001600160a01b0384168584611c88565b610c8a8133600161243c565b6000546001600160a01b031633146112695760405162461bcd60e51b815260040161091b90612e49565b6001600160a01b0382166000908152601060205260409020805460ff19168215151790555050565b600080600583815481106112a7576112a7612dfb565b60009182526020822001546040516370a0823160e01b81523060048201526001600160a01b03909116925082906370a082319060240160206040518083038186803b1580156112f557600080fd5b505afa158015611309573d6000803e3d6000fd5b505050506040513d601f19601f8201168201806040525081019061132d9190612ede565b905060075460001415611341579392505050565b600061136f6007546008546004888154811061135f5761135f612dfb565b9060005260206000200154611e97565b600a54909150156113b55760006113a5600854600a546008546113929190612ec6565b600b898154811061135f5761135f612dfb565b90506113b18183612ec6565b9150505b6000600286815481106113ca576113ca612dfb565b906000526020600020015482600388815481106113e9576113e9612dfb565b90600052602060002001546113fe9190612ec6565b6114089190612de4565b6114129084612de4565b90507f00000000000000000000000000000000000000000000000000000000000000006001600160a01b0316846001600160a01b0316141561145e5760015461145b9082612de4565b90505b95945050505050565b6005818154811061147757600080fd5b6000918252602090912001546001600160a01b0316905081565b60008060085483106114a5576008546114a7565b825b90506000600954826114b99190612de4565b90506000600486815481106114d0576114d0612dfb565b9060005260206000200154826114e69190612ef7565b90506000600154670de0b6b3a7640000836115019190612ef7565b61150b9190612f16565b9050600081600c898154811061152357611523612dfb565b90600052602060002001546115389190612ec6565b6001600160a01b038a166000908152600e60205260408120600181015492935091670de0b6b3a76400009061156e908590612ef7565b6115789190612f16565b90506000826002018b8154811061159157611591612dfb565b9060005260206000200154826115a79190612de4565b905080836003018c815481106115bf576115bf612dfb565b90600052602060002001546115d49190612ec6565b985050505050505050505b9392505050565b6001600160a01b0382166000908152600e602052604081206003810180548490811061161457611614612dfb565b906000526020600020015491505092915050565b60085442908111801561163d57506000600a54115b156116b95761164d600854611eb0565b6116b9600854600a546008546116639190612ec6565b600b8054806020026020016040519081016040528092919081815260200182805480156116af57602002820191906000526020600020905b81548152602001906001019080831161169b575b5050505050611fc3565b610c8a81611eb0565b610be73361277f565b6000546001600160a01b031633146116f55760405162461bcd60e51b815260040161091b90612e49565b60075442106117655760405162461bcd60e51b815260206004820152603660248201527f52657761726473506f6f6c426173653a204e6f207374617274207363686564756044820152751b1959081bdc88185b1c9958591e481cdd185c9d195960521b606482015260840161091b565b604080516000815260208101918290525161178291600491612ad4565b50600060078190556008819055600955565b6001600160a01b0382166000908152600e602052604081206002810180548490811061161457611614612dfb565b6000546001600160a01b031633146117ec5760405162461bcd60e51b815260040161091b90612e49565b6001600160a01b0381166118515760405162461bcd60e51b815260206004820152602660248201527f4f776e61626c653a206e6577206f776e657220697320746865207a65726f206160448201526564647265737360d01b606482015260840161091b565b610c8a8161217b565b600c8181548110610cc057600080fd5b60048181548110610cc057600080fd5b6001600160a01b0381166000908152600e6020526040902060055460028201546119145760008167ffffffffffffffff8111156118b9576118b9612f38565b6040519080825280602002602001820160405280156118e2578160200160208202803683370190505b5080519091506118fb9060028501906020840190612ad4565b5080516119119060038501906020840190612ad4565b50505b600182015461192257505050565b60005b81811015610fab576000670de0b6b3a7640000600c838154811061194b5761194b612dfb565b906000526020600020015485600101546119659190612ef7565b61196f9190612f16565b9050600084600201838154811061198857611988612dfb565b90600052602060002001548261199e9190612de4565b90508015611a1757808560030184815481106119bc576119bc612dfb565b90600052602060002001546119d19190612ec6565b8560030184815481106119e6576119e6612dfb565b906000526020600020018190555081856002018481548110611a0a57611a0a612dfb565b6000918252602090912001555b50508080611a2490612e11565b915050611925565b6001600160a01b0381166000908152600e60205260409020611a4c611628565b611a558261187a565b60055460005b81811015610fab576000836003018281548110611a7a57611a7a612dfb565b906000526020600020015490506000846003018381548110611a9e57611a9e612dfb565b90600052602060002001819055508060028381548110611ac057611ac0612dfb565b9060005260206000200154611ad59190612ec6565b60028381548110611ae857611ae8612dfb565b9060005260206000200181905550846001600160a01b03167f7e6632ca16a0ac6cf28448500b1a17d96c8b8163ad4c4a9b44ef5386cc02779e8260058581548110611b3557611b35612dfb565b600091825260209091200154604051611b6a92916001600160a01b0316909182526001600160a01b0316602082015260400190565b60405180910390a2600654600580546001600160a01b039092169184908110611b9557611b95612dfb565b6000918252602090912001546001600160a01b03161415611c5d5760058281548110611bc357611bc3612dfb565b600091825260209091200154604051632e1a7d4d60e01b8152600481018390526001600160a01b0390911690632e1a7d4d90602401600060405180830381600087803b158015611c1257600080fd5b505af1158015611c26573d6000803e3d6000fd5b505060405133925083156108fc02915083906000818181858888f19350505050158015611c57573d6000803e3d6000fd5b50611c75565b611c75858260058581548110610c4c57610c4c612dfb565b5080611c8081612e11565b915050611a5b565b6040516001600160a01b038316602482015260448101829052610c7b90849063a9059cbb60e01b906064015b60408051601f198184030181529190526020810180516001600160e01b03166001600160e01b0319909316929092179091526127e9565b60008211611d465760405162461bcd60e51b815260206004820152602260248201527f52657761726473506f6f6c426173653a2063616e6e6f74207769746864726177604482015261020360f41b606482015260840161091b565b6001600160a01b0381166000908152600e60205260409020611d66611628565b611d6f8261187a565b828160010154611d7f9190612de4565b816001018190555082600154611d959190612de4565b60015560055460005b81811015611e1f576000670de0b6b3a7640000600c8381548110611dc457611dc4612dfb565b90600052602060002001548560010154611dde9190612ef7565b611de89190612f16565b905080846002018381548110611e0057611e00612dfb565b6000918252602090912001555080611e1781612e11565b915050611d9e565b50826001600160a01b03167f7084f5476618d8e60b11ef0d7d3f06914655adb8793e28ff7f018d4c76d505d585604051611e5b91815260200190565b60405180910390a2610fab6001600160a01b037f0000000000000000000000000000000000000000000000000000000000000000168486611c88565b600080611ea48585612de4565b905061145e8184612ef7565b6009548111611ebc5750565b60006008548210611ecf57600854611ed1565b815b9050600060095482611ee39190612de4565b905080611eef57505050565b600154611efd575060095550565b60055460005b81811015611fba57600060048281548110611f2057611f20612dfb565b906000526020600020015484611f369190612ef7565b90506000600154670de0b6b3a764000083611f519190612ef7565b611f5b9190612f16565b905080600c8481548110611f7157611f71612dfb565b9060005260206000200154611f869190612ec6565b600c8481548110611f9957611f99612dfb565b60009182526020909120015550819050611fb281612e11565b915050611f03565b50505060095550565b60045460005b8181101561204c576000611fef6007546008546004858154811061135f5761135f612dfb565b9050806003838154811061200557612005612dfb565b906000526020600020015461201a9190612ec6565b6003838154811061202d5761202d612dfb565b600091825260209091200155508061204481612e11565b915050611fc9565b50600f60405180606001604052806007548152602001600854815260200160048054806020026020016040519081016040528092919081815260200182805480156120b657602002820191906000526020600020905b8154815260200190600101908083116120a2575b50505091909252505081546001818101845560009384526020938490208351600390930201918255838301519082015560408201518051929391926121019260028501920190612ad4565b5050825161211791506004906020850190612ad4565b506007849055600883905560098490556000600a81905561213a90600b90612a6b565b7fd363ac13638f68e7284bc244076ff171a95616bfe30c8c7629980906a9db036384848460405161216d93929190612f4e565b60405180910390a150505050565b600080546001600160a01b038381166001600160a01b0319831681178455604051919092169283917f8be0079c531659141344cd1fd0a4f28419497f9722a3daafe3b4186f6b6457e09190a35050565b6007541561221b5760405162461bcd60e51b815260206004820181905260248201527f52657761726473506f6f6c426173653a20616c72656164792073746172746564604482015260640161091b565b42841015801561222a57508383115b6122845760405162461bcd60e51b815260206004820152602560248201527f52657761726473506f6f6c426173653a20696e76616c6964207374617274206f6044820152641c88195b9960da1b606482015260840161091b565b60055481146122a55760405162461bcd60e51b815260040161091b90612e7e565b6122b160048383612a89565b5060055460005b818110156123e85760006122da87876004858154811061135f5761135f612dfb565b90506000600583815481106122f1576122f1612dfb565b6000918252602090912001546040516370a0823160e01b81523060048201526001600160a01b03909116906370a082319060240160206040518083038186803b15801561233d57600080fd5b505afa158015612351573d6000803e3d6000fd5b505050506040513d601f19601f820116820180604052508101906123759190612ede565b9050818110156123d35760405162461bcd60e51b815260206004820152602360248201527f52657761726473506f6f6c426173653a206e6f7420656e6f756768207265776160448201526272647360e81b606482015260840161091b565b505080806123e090612e11565b9150506122b8565b506007859055600884905560098590556040517f74e89788dfd5b96dd5e9c38139638937b89fc0d4863da5644783b5d7f876b87a9061242d9087908790600490612fa3565b60405180910390a15050505050565b600754429015801590612450575060075481115b801561246b5750600a546008546124679190612ec6565b8111155b6124fc5760405162461bcd60e51b815260206004820152605660248201527f52657761726473506f6f6c426173653a207374616b696e67206973206e6f742060448201527f73746172746564206f722069732066696e6973686564206f72206e6f20657874606482015275656e73696f6e2074616b696e6720696e20706c61636560501b608482015260a40161091b565b6001600160a01b0383166000908152600e6020526040902060018101547f000000000000000000000000000000000000000000000000000000000000000090612546908790612ec6565b1115801561258157507f00000000000000000000000000000000000000000000000000000000000000008560015461257e9190612ec6565b11155b6125d95760405162461bcd60e51b8152602060048201526024808201527f52657761726473506f6f6c426173653a207374616b65206c696d69742072656160448201526318da195960e21b606482015260840161091b565b600085116126295760405162461bcd60e51b815260206004820152601f60248201527f52657761726473506f6f6c426173653a2063616e6e6f74207374616b65203000604482015260640161091b565b6001810154612636578181555b61263e611628565b6126478461187a565b8481600101546126579190612ec6565b81600101819055508460015461266d9190612ec6565b60015560055460005b818110156126f157670de0b6b3a7640000600c828154811061269a5761269a612dfb565b906000526020600020015484600101546126b49190612ef7565b6126be9190612f16565b8360020182815481106126d3576126d3612dfb565b600091825260209091200155806126e981612e11565b915050612676565b50846001600160a01b03167f9e71bc8eea02a63969f509818f2dafb9254532904319f9dbda79b67bd34a5f3d8760405161272d91815260200190565b60405180910390a2612777846127435733612745565b855b6001600160a01b037f0000000000000000000000000000000000000000000000000000000000000000169030896128bb565b505050505050565b6001600160a01b0381166000818152600e60209081526040918290206001810154925192835292917f920bb94eb3842a728db98228c375ff6b00c5bc5a54fac6736155517a0a20a61a910160405180910390a26127db82611a2c565b610ac4816001015483611ceb565b600061283e826040518060400160405280602081526020017f5361666545524332303a206c6f772d6c6576656c2063616c6c206661696c6564815250856001600160a01b03166128f39092919063ffffffff16565b805190915015610c7b578080602001905181019061285c9190612e2c565b610c7b5760405162461bcd60e51b815260206004820152602a60248201527f5361666545524332303a204552433230206f7065726174696f6e20646964206e6044820152691bdd081cdd58d8d9595960b21b606482015260840161091b565b6040516001600160a01b0380851660248301528316604482015260648101829052610fab9085906323b872dd60e01b90608401611cb4565b6060612902848460008561290a565b949350505050565b60608247101561296b5760405162461bcd60e51b815260206004820152602660248201527f416464726573733a20696e73756666696369656e742062616c616e636520666f6044820152651c8818d85b1b60d21b606482015260840161091b565b843b6129b95760405162461bcd60e51b815260206004820152601d60248201527f416464726573733a2063616c6c20746f206e6f6e2d636f6e7472616374000000604482015260640161091b565b600080866001600160a01b031685876040516129d59190612fef565b60006040518083038185875af1925050503d8060008114612a12576040519150601f19603f3d011682016040523d82523d6000602084013e612a17565b606091505b5091509150612a27828286612a32565b979650505050505050565b60608315612a415750816115df565b825115612a515782518084602001fd5b8160405162461bcd60e51b815260040161091b9190612b87565b5080546000825590600052602060002090810190610c8a9190612b0f565b828054828255906000526020600020908101928215612ac4579160200282015b82811115612ac4578235825591602001919060010190612aa9565b50612ad0929150612b0f565b5090565b828054828255906000526020600020908101928215612ac4579160200282015b82811115612ac4578251825591602001919060010190612af4565b5b80821115612ad05760008155600101612b10565b80356001600160a01b0381168114612b3b57600080fd5b919050565b600060208284031215612b5257600080fd5b6115df82612b24565b60005b83811015612b76578181015183820152602001612b5e565b83811115610fab5750506000910152565b6020815260008251806020840152612ba6816040850160208701612b5b565b601f01601f19169190910160400192915050565b600060208284031215612bcc57600080fd5b5035919050565b60008083601f840112612be557600080fd5b50813567ffffffffffffffff811115612bfd57600080fd5b6020830191508360208260051b8501011115612c1857600080fd5b9250929050565b600080600060408486031215612c3457600080fd5b83359250602084013567ffffffffffffffff811115612c5257600080fd5b612c5e86828701612bd3565b9497909650939450505050565b60008060008060608587031215612c8157600080fd5b8435935060208501359250604085013567ffffffffffffffff811115612ca657600080fd5b612cb287828801612bd3565b95989497509550505050565b60008060408385031215612cd157600080fd5b612cda83612b24565b9150612ce860208401612b24565b90509250929050565b8015158114610c8a57600080fd5b60008060408385031215612d1257600080fd5b612d1b83612b24565b91506020830135612d2b81612cf1565b809150509250929050565b600080600060608486031215612d4b57600080fd5b612d5484612b24565b95602085013595506040909401359392505050565b60008060408385031215612d7c57600080fd5b612d8583612b24565b946020939093013593505050565b600181811c90821680612da757607f821691505b60208210811415612dc857634e487b7160e01b600052602260045260246000fd5b50919050565b634e487b7160e01b600052601160045260246000fd5b600082821015612df657612df6612dce565b500390565b634e487b7160e01b600052603260045260246000fd5b6000600019821415612e2557612e25612dce565b5060010190565b600060208284031215612e3e57600080fd5b81516115df81612cf1565b6020808252818101527f4f776e61626c653a2063616c6c6572206973206e6f7420746865206f776e6572604082015260600190565b60208082526028908201527f52657761726473506f6f6c426173653a20696e76616c69642072657761726450604082015267195c94d958dbdb9960c21b606082015260800190565b60008219821115612ed957612ed9612dce565b500190565b600060208284031215612ef057600080fd5b5051919050565b6000816000190483118215151615612f1157612f11612dce565b500290565b600082612f3357634e487b7160e01b600052601260045260246000fd5b500490565b634e487b7160e01b600052604160045260246000fd5b6000606082018583526020858185015260606040850152818551808452608086019150828701935060005b81811015612f9557845183529383019391830191600101612f79565b509098975050505050505050565b60006060820185835260208581850152606060408501528185548084526080860191508660005282600020935060005b81811015612f9557845483526001948501949284019201612fd3565b60008251613001818460208701612b5b565b919091019291505056fea2646970667358221220c09232cfe5d0ede137bffc750c8e61a9cc9702e7661a471991709412f9811fca64736f6c63430008090033",
  "linkReferences": {},
  "deployedLinkReferences": {}
}